:100000000C9434000C9451000C9451000C94510049
:100010000C9451000C9451000C9451000C9451001C
:100020000C9451000C9451000C9451000C9451000C
:100030000C9451000C9451000C9451000C945100FC
:100040000C94EA020C9451000C9451000C94510051
:100050000C9451000C9451000C9451000C945100DC
:100060000C9451000C94510011241FBECFEFD8E026
:10007000DEBFCDBF11E0A0E0B1E0E6EFFEE002C0E0
:1000800005900D92A232B107D9F721E0A2E2B1E0CA
:1000900001C01D92AA33B207E1F70E94C7040C9475
:1000A00079070C940000CF93CFEFCAB9C4B9C7B990
:1000B000CAB983E088B980E88BB9C5B98BEF85B937
:1000C00061E070E080E090E00E945703C5B9CF91F5
:1000D0000895CF938AB968B94BB9CFEFC5B98BEF03
:1000E00085B961E070E080E090E00E945703C5B9F7
:1000F000CF910895CF938AB968B9CFEFC5B987EF8B
:1001000085B961E070E080E090E00E94570389B11A
:10011000C5B9CF910895FF920F931F93CF93DF93AB
:1001200000D000D0CDB7DEB78FE889838FE48A8313
:100130008FE28B838FE18C83F12C0F2D10E0E1E0B7
:10014000F0E0EC0FFD1FE00FF11F408162E080EF57
:100150000E94690062E080E00E947A008F708B301C
:10016000F1F1A8F4873009F04CC02FEF85EA9EE04A
:10017000215080409040E1F700C00000F801EE0FF0
:10018000FF1FEE0FFF1FE85FFE4F838140C08D30E1
:10019000A1F08E30B1F52FEF85EA9EE0215080402E
:1001A0009040E1F700C00000F801EE0FFF1FEE0FD6
:1001B000FF1FE85FFE4F80812AC02FEF85EA9EE097
:1001C000215080409040E1F700C00000F801EE0FA0
:1001D000FF1FEE0FFF1FE85FFE4F818118C02FEF5A
:1001E00085EA9EE0215080409040E1F700C0000089
:1001F000F801EE0FFF1FEE0FFF1FE85FFE4F828139
:1002000006C0F39423E02F1508F496CF96CF0F90F5
:100210000F900F900F90DF91CF911F910F91FF9052
:100220000895CF93DF93C62FD22F682F8FEF0E94B0
:1002300069004D2F42606C2F8FEF0E94690061E0D2
:1002400070E080E090E00E9457034D2F4D7F6C2FAF
:100250008FEFDF91CF910C94690020E048E361E0DB
:1002600080E00E94110120E041E061E080E00E9416
:10027000110120E04EE061E080E00C9411010F9349
:100280001F93CF93DF938C01C0E0D0E0BE01C80183
:100290000E94B404FC018081882369F0BE01C8017A
:1002A0000E94B40421E0FC01408161E080E00E94F2
:1002B00011012196EBCFDF91CF911F910F910895FE
:1002C0008B32A9F054F48A32D1F4649F9001659F77
:1002D000300D749F300D112413C08D3261F08F32B8
:1002E00071F4CB01BA010E94D9049B0109C09B01A2
:1002F000240F351F05C09B01241B350B01C0089539
:10030000C9010895AF92BF92CF92DF92EF92FF9210
:100310000F931F93CF93DF935B016C01EA017B0185
:1003200080E090E097012A193B092017310784F4F7
:10033000F6014281538182E0C80ED11C6081718137
:10034000F70181917F010E94600189939993EACF1F
:10035000DF91CF911F910F91FF90EF90DF90CF90A1
:10036000BF90AF900895CF93DF9300D000D000D01E
:10037000CDB7DEB70E9453000E942D0120E044E873
:1003800061E080E00E94110168E171E0CE01019618
:100390000E943A04CE0101960E943F01CE010196CF
:1003A0000E94CC0368EE73E080E090E00E94570367
:1003B00020E041E061E080E00E94110188EC90E0E3
:1003C0000E94D60490932B0180932A0184E690E04A
:1003D0000E94D604909329018093280188EC90E034
:1003E0000E94D604909327018093260126960FB68B
:1003F000F894DEBF0FBECDBFDF91CF9108950F936C
:100400001F93CF93DF93CDB7DEB72C970FB6F89439
:10041000DEBF0FBECDBF0E948B00182F8E3409F4B3
:10042000A2C021E0482F61E080E00E9411011D334D
:1004300081F5009122011091230120912401309136
:10044000250140912601509127016091280170916A
:10045000290180912A0190912B010E9482014AE09A
:10046000BC01CE0107960E948804BE01695F7F4FE0
:10047000CE0101960E946704CE0101960E943F01C1
:10048000CE0101960E94CC03CE0107960E94CC03B8
:1004900096C0812F8D7F8D3221F086ED810F8230C5
:1004A000A8F4E0912801F091290180912201909116
:1004B0002301E80FF91F10838091220190912301FD
:1004C0000196909323018093220173C0209106012D
:1004D000309107012130310511F52091240130912F
:1004E0002501220F331FE0912A01F0912B01E20F29
:1004F000F31F812F992787FD9095C0979183808363
:10050000809124019091250101969093250180937B
:100510002401809106019091070101964CC0223080
:1005200031050CF44CC0209124013091250121505B
:100530003048220F331FE0912A01F0912B01E20F86
:10054000F31F608171818AE0869F9001879F300D43
:100550001124812F992787FD9095C097280F391F67
:10056000318320832CC020E041E061E080E00E94E4
:10057000110188EC90E00E94D60490932B018093A7
:100580002A0184E690E00E94D6049093290180938A
:10059000280188EC90E00E94D60490932701809374
:1005A000260110922301109222011092250110922F
:1005B000240181E090E090930701809306012C963E
:1005C0000FB6F894DEBF0FBECDBFDF91CF911F9164
:1005D0000F9108951F920F920FB60F9211242F932F
:1005E0003F938F939F93AF93BF9380912D019091F1
:1005F0002E01A0912F01B091300130912C0123E008
:10060000230F2D3720F40196A11DB11D05C026E84A
:10061000230F0296A11DB11D20932C0180932D0163
:1006200090932E01A0932F01B0933001809131015E
:1006300090913201A0913301B09134010196A11D36
:10064000B11D8093310190933201A0933301B09397
:100650003401BF91AF919F918F913F912F910F9056
:100660000FBE0F901F9018953FB7F89480913101FD
:1006700090913201A0913301B091340126B5A89B2D
:1006800005C02F3F19F00196A11DB11D3FBF662780
:10069000782F892F9A2F620F711D811D911D42E0C5
:1006A000660F771F881F991F4A95D1F708958F927B
:1006B0009F92AF92BF92CF92DF92EF92FF926B0127
:1006C0007C010E9434034B015C01C114D104E1049C
:1006D000F104F1F00E94D8040E94340368197909EA
:1006E0008A099B09683E73408105910570F321E0FA
:1006F000C21AD108E108F10888EE880E83E0981E3E
:10070000A11CB11CC114D104E104F10429F7DDCF0F
:10071000FF90EF90DF90CF90BF90AF909F908F9021
:100720000895789484B5826084BD84B5816084BD69
:1007300085B5826085BD85B5816085BDEEE6F0E05A
:10074000808181608083E1E8F0E0108280818260B6
:100750008083808181608083E0E8F0E08081816037
:100760008083E1EBF0E0808184608083E0EBF0E067
:10077000808181608083EAE7F0E08081846080830B
:1007800080818260808380818160808380818068B5
:1007900080831092C1000895FC01808191810C94A6
:1007A0009905CF93DF93EC0188819981009711F02F
:1007B0000E949905198218821D821C821B821A824E
:1007C000DF91CF9108950F931F93CF93DF93EC01A7
:1007D0008B016F5F7F4F888199810E942806009767
:1007E00031F0998388831B830A8381E001C080E014
:1007F000DF91CF911F910F910895CF93DF93EC017B
:1008000088819981892B29F08A819B818617970796
:1008100060F4CE010E94E303882341F08C819D8126
:10082000892B19F4E881F981108281E0DF91CF9161
:100830000895EF92FF920F931F93CF93DF93EC01F4
:100840007B018A01BA010E94FD03811104C0CE011F
:100850000E94D10307C01D830C83B7018881998151
:100860000E94FB06CE01DF91CF911F910F91FF9067
:10087000EF900895FC01118210821382128215827A
:1008800014826115710559F0FB0101900020E9F710
:10089000AF0141505109461B570B0C9419040895A0
:1008A000CF93DF93EC01FB018617970761F060811E
:1008B00071816115710529F0448155810E941904E7
:1008C00002C00E94D103CE01DF91CF910895FC01B7
:1008D0001182108213821282158214820C945004A9
:1008E000CF93DF93EC016115710561F0FB0101907D
:1008F0000020E9F7AF0141505109461B570B0E94F8
:10090000190402C00E94D103CE01DF91CF91089556
:100910000F931F93CF93DF93CDB7DEB762970FB6D8
:10092000F894DEBF0FBECDBF8C01CB01F801118260
:100930001082138212821582148250E0BE016F5F12
:100940007F4F0E940207BE016F5F7F4FC8010E9468
:10095000700462960FB6F894DEBF0FBECDBFDF9174
:10096000CF911F910F910895FC01848195816817A3
:10097000790720F480819181009729F41092350144
:1009800085E391E00895860F971F089508950E94CA
:1009900091030E94C6040E94B301C0E0D0E00E940F
:1009A000FF012097E1F30E940000F9CF0C940105AC
:1009B000089597FB072E16F4009407D077FD09D011
:1009C0000E94ED0407FC05D03EF4909581959F4F61
:1009D0000895709561957F4F0895AA1BBB1B51E147
:1009E00007C0AA1FBB1FA617B70710F0A61BB70B9F
:1009F000881F991F5A95A9F780959095BC01CD0144
:100A00000895CF93DF938230910510F482E090E057
:100A1000E0913801F091390120E030E0A0E0B0E051
:100A2000309739F14081518148175907B8F048177C
:100A3000590771F482819381109729F013969C9342
:100A40008E9312972CC0909339018093380127C060
:100A50002115310531F04217530718F0A901DB01C8
:100A600001C0EF019A01BD01DF010280F381E02D99
:100A7000D7CF21153105F9F0281B390B243031056A
:100A800080F48A819B816115710521F0FB019383BC
:100A9000828304C09093390180933801FE0132961D
:100AA00044C0FE01E20FF31F81939193225031095C
:100AB000398328833AC02091360130913701232BA6
:100AC00041F42091020130910301309337012093CA
:100AD000360120910001309101012115310541F4C9
:100AE0002DB73EB74091040150910501241B350BF1
:100AF000E0913601F0913701E217F307A0F42E1BC5
:100B00003F0B2817390778F0AC014E5F5F4F241771
:100B1000350748F04E0F5F1F509337014093360161
:100B20008193919302C0E0E0F0E0CF01DF91CF919B
:100B30000895CF93DF93009709F487C0FC013297A3
:100B400013821282C0913801D0913901209781F42B
:100B500020813181280F391F809136019091370112
:100B60008217930779F5F0933701E09336016DC052
:100B7000DE0120E030E0AE17BF0750F412964D9131
:100B80005C9113979D014115510509F1DA01F3CFED
:100B9000B383A28340815181840F951F8A179B07DD
:100BA00071F48D919C911197840F951F02969183FA
:100BB000808312968D919C91139793838283211544
:100BC000310529F4F0933901E09338013EC0D90191
:100BD0001396FC93EE9312974D915D91A40FB51F60
:100BE000EA17FB0779F480819181840F951F0296A3
:100BF000D90111969C938E938281938113969C9335
:100C00008E931297E0E0F0E08A819B81009719F0C3
:100C1000FE01EC01F9CFCE01029628813981820FC5
:100C2000931F20913601309137012817390769F455
:100C3000309729F4109239011092380102C01382C2
:100C40001282D0933701C0933601DF91CF9108957E
:100C5000A0E0B0E0EEE2F6E00C944607EC01CB0138
:100C6000209719F40E940105B8C0FE01E60FF71F96
:100C70009E0122503109E217F30708F4ACC0D901F4
:100C80000D911C91119706171707B8F00530110543
:100C900008F49FC0A801445051094617570708F4AB
:100CA00098C002501109061B170B019311936D9305
:100CB0007C93CF010E9499058CC05B01A01AB10AF8
:100CC0004E01800E911EA0913801B0913901612C26
:100CD000712C60E070E0109709F449C0A815B905BF
:100CE000C9F5ED90FC901197670142E0C40ED11C4C
:100CF000CA14DB0478F147018A189B08640142E0BA
:100D0000C40ED11C1296BC9012971396AC91B5E00C
:100D1000CB16D10440F0B282A38391828082D901A4
:100D20008D939C9309C00E5F1F4F0E0D1F1DF9017F
:100D300011830083EB2DFA2F6115710531F0DB0172
:100D40001396FC93EE93129744C0F0933901E0930D
:100D500038013FC06D917C9111976616770608F4B3
:100D60003B01BD0112960D90BC91A02DB4CF6091B6
:100D700036017091370168157905E9F4681679062E
:100D8000D0F440910001509101014115510541F409
:100D90004DB75EB76091040170910501461B570B7A
:100DA000E417F507C0F4F0933701E0933601F90139
:100DB000918380830EC00E9401057C01009759F049
:100DC000A801BE010E94F206CE010E949905C7014A
:100DD00004C0CE0102C080E090E0CDB7DEB7EEE007
:100DE0000C946207FB01DC0102C001900D9241509E
:100DF0005040D8F70895FB01DC0101900D920020CE
:100E0000E1F708954532510520F4423010F00C947A
:100E10000D07FB011082CB010895BB274A3031F446
:100E2000992322F4BDE2909581959F4F0C94190768
:100E3000BB27FB015527AA27880F991FAA1FA417B4
:100E400010F0A41B83955051B9F7A05DAA3308F0A8
:100E5000A95DA193009779F7B111B1931192CB01DC
:100E60000C943207DC01FC01672F71917723E1F7C5
:100E7000329704C07C916D9370836291AE17BF0767
:100E8000C8F308952F923F924F925F926F927F9294
:100E90008F929F92AF92BF92CF92DF92EF92FF928A
:100EA0000F931F93CF93DF93CDB7DEB7CA1BDB0B36
:100EB0000FB6F894DEBF0FBECDBF09942A883988DB
:100EC00048885F846E847D848C849B84AA84B984E2
:100ED000C884DF80EE80FD800C811B81AA81B981EE
:100EE000CE0FD11D0FB6F894DEBF0FBECDBFED0102
:060EF0000895F894FFCF05
:100EF60000003A01800001003734314E2F2A2D2B95
:100F06003936333D3835323057656C6C636F6D65F5
:020F16000000D9
:00000001FF
